:020000040800F2
:10000000181900209D010008CB1200087712000883
:10001000C912000815040008ED13000800000000D4
:10002000000000000000000000000000EF120008C7
:100030001704000800000000ED120008F11200088B
:10004000B7010008B7010008B7010008B7010008B0
:10005000B7010008B7010008B7010008B7010008A0
:10006000B7010008B7010008B7010008B701000890
:10007000B7010008B7010008B7010008B701000880
:10008000B7010008B7010008E5020008B701000841
:10009000B7010008B7010008B7010008B701000860
:1000A000B7010008B7010008B7010008B701000850
:1000B000B7010008B7010008B7010008B701000840
:1000C000B7010008B7010008B7010008B701000830
:1000D000B7010008B7010008B7010008B701000820
:1000E000B7010008B7010008B7010008B701000810
:1000F000B7010008B7010008B7010008B701000800
:10010000B7010008B7010008B7010008B7010008EF
:10011000B7010008B7010008B7010008B7010008DF
:10012000B7010008B7010008B7010008B7010008CF
:10013000B7010008B7010008B7010008B7010008BF
:10014000B7010008B7010008B7010008B7010008AF
:10015000B7010008B7010008B7010008B70100089F
:10016000B7010008B7010008B7010008B70100088F
:10017000B7010008B7010008B7010008000000003F
:10018000B7010008B7010008DFF80CD000F068F8EC
:10019000004800470D140008181900200648804741
:1001A00006480047FEE7FEE7FEE7FEE7FEE7FEE75C
:1001B000FEE7FEE7FEE7FEE7991300088901000865
:1001C0002DE9F05F0546002092469B46884606468C
:1001D000814640241BE0284641464746224600F01F
:1001E0002FF853465A46C01A914110D3114618466B
:1001F000224600F016F82D1A67EB01084F462246FA
:100200000120002100F00DF817EB00094E41201EDF
:10021000A4F10104DFDC484631462A464346BDE8E6
:10022000F09F202A04DB203A00FA02F100207047F8
:100230009140C2F1200320FA03F319439040704724
:10024000202A04DB203A21FA02F00021704721FA2B
:1002500002F3D040C2F12002914008431946704792
:10026000064C074D06E0E06840F0010394E8070003
:1002700098471034AC42F6D3FFF78AFF4C150008BC
:100280006C15000870B58D1810F8014B14F00302BE
:1002900001D110F8012B231106D110F8013B03E026
:1002A00010F8016B01F8016B521EF9D1ABB110F8D7
:1002B000012B04F00C048A1A0C2C03D0A2EB84123C
:1002C0009B1C08E010F8014BA2EB0422F8E712F89F
:1002D000014B01F8014B5B1EF9D5A942D4D3002094
:1002E00070BD0000014800F066B90000BC14002099
:1002F000454910B54A6822F440324A604A6843686A
:100300001A434A6001684A6822F480724A600168B0
:100310004A68036942EA03224A6001684A6822F097
:1003200040724A6001684A6883681A434A600168FB
:100330008A6822F400628A6001688A68C3681A4386
:100340008A60816A6FF07062D14201688A6822F027
:1003500070628A6001688A680CD0836A1A438A6076
:1003600001688A6822F040528A6001688A68C36A1C
:100370001A4301E022F040528A6001688A6822F044
:1003800002028A6001688A68836942EA43028A60DD
:10039000016A002901684A680FD042F400624A608D
:1003A00001684A6822F460424A6001684A68174C52
:1003B000436A04EB43331A4301E022F400624A60CB
:1003C0000168CA6A22F47002CA620168CA6A838B31
:1003D0000F4C04EB03531A43CA6201688A6822F483
:1003E00000728A6001688A68036B42EA43228A606D
:1003F00001688A6822F480628A6001688A684069BC
:1004000042EA8020886010BD0023014000E0FFFF29
:100410000000F0FFFEE770470E48016821F0807190
:100420000160016841F0807101600B48016821F0B2
:1004300001010160016841F001010160002141609A
:1004400000BF00BF00BF406808B100207047012016
:1004500070470000FCED00E0001000E07047000075
:1004600078B50024009490F83C20012A19D001228C
:1004700080F83C200A6807230568092A13D9EE682A
:100480000A3A02EB420293409E43EE600B788A6880
:100490000A3B03EB43039A400368DD682A43DA60B2
:1004A00010E0022078BD2E6902EB420293409E4389
:1004B0002E610B788A6803EB43039A4003681D6939
:1004C0002A431A614A681F23072A13D205686E6BF4
:1004D000521E02EB820293409E436E630B790A88A0
:1004E0005B1E92B203EB83039A4003685D6B2A4361
:1004F0005A6327E005680D2A12D22E6BD21F02EB39
:10050000820293409E432E630B790A88DB1F92B2CE
:1005100003EB83039A4003681D6B2A431A6311E0BF
:10052000EE6A0D3A02EB820293409E43EE620B7933
:100530000A880D3B92B203EB83039A400368DD6A9D
:100540002A43DA62164B0568144A9D4206D10D68AB
:10055000122D03D1556845F48005556005689D420C
:1005600018D10B68102B01D0112B13D1536843F411
:1005700000035360096810290CD10A490A4A096826
:10058000B1FBF2F101EB8101490000E0491E00914D
:100590000029FBD180F83C40002078BD00230140B9
:1005A00000200140640A002040420F00704770475D
:1005B0000068C06C704770B5044600680168426806
:1005C000C1F34001C2F3401251B34AB3216CC906D2
:1005D00003D4216C41F400712164816811F0405F03
:1005E00017D1A169A9B9C16A11F4700F02D081684D
:1005F00049050ED4416821F020014160206C20F4AF
:1006000080702064206CC00403D4206C40F0010092
:1006100020642046FFF7CAFF21686FF012000860CF
:10062000206801684268C1F38001C2F3C01289B337
:1006300082B3216CC90603D4216C41F400512164BA
:10064000816811F4401F1ED1816B11F4401F02D04C
:100650008168490517D44168490514D4816811F0AF
:10066000405F10D1A16971B9416821F080014160FA
:10067000206C20F480502064206CC00503D4206CD2
:1006800040F0010020642046FFF7E8FE21686FF08B
:100690000C00086020680168426811F0010FC2F385
:1006A00080120ED06AB10068C0070AD0206C40F4F6
:1006B00080302064204600F046F821686FF0010089
:1006C0000860206801684268C1F34011C2F380628B
:1006D00000290DD0002A0BD0616C41F00201616449
:1006E0006FF0200505602046FFF761FF2068056078
:1006F00070BD70B504004FF0000503D0206C0026DB
:1007000010B107E0012070BD666484F83C602046AB
:1007100000F01AF8206CC00610D4206C20F4885029
:1007200040F0020020642046FFF7E2FD6664206C82
:1007300020F0020040F00100206400E0012584F870
:100740003C60284670BD704700B50068104987B00E
:1007500088421AD10F480021026842F48072026078
:10076000006800F480700590042000900320CDE91B
:1007700001016946084800F05DF900221146122087
:1007800000F0C6FA122000F0B7FA07B000BD000072
:100790000020014044380240000002402DE9F041B1
:1007A000044600680D4681684FF0000749050BD5E7
:1007B0008068C00508D5206C40F02000206484F8D3
:1007C0003C700120BDE8F08100F00CFA06460FE015
:1007D000681C0DD025B100F005FA801BA84207D98E
:1007E000206C40F00400206484F83C700320E9E7AA
:1007F000206800688007EBD521686FF01200086060
:10080000206C40F4007020642068816811F0405F23
:1008100013D1A16989B9C16A11F4700F02D080683F
:1008200040050AD4206C20F480702064206CC00441
:1008300003D4206C40F0010020640020C2E70000D7
:1008400018B50021009190F83C20012A07D0012220
:1008500080F83C2002689368DB0702D011E0022098
:1008600018BD936843F001039360204A204B12683F
:10087000B2FBF3F202EB420200E0521E0092002AA9
:10088000FBD102689368DB072DD0036C40F2016452
:10089000A34343F48073036453685B0505D5036C7D
:1008A00023F4005343F480530364036CDB0404D546
:1008B000436C23F00603436400E0416480F83C107D
:1008C0000C496FF02203136049680068C90602D022
:1008D0000949884207D1816811F0405F03D18168DE
:1008E00041F080418160002018BD0000640A0020B2
:1008F00040420F00002301400020014070B54379C1
:10090000012B1AD0012646710223037105682C6859
:1009100040F6FE7393409C43D1E900310B43934072
:1009200023432B6001680B68C0249440A3430B60F1
:10093000067100214171084670BD022070BD70B57E
:10094000040003D02079002510B105E0012070BD1E
:100950006571204600F008F8022020712561012011
:100960002071002070BD000000B500680C4987B000
:10097000884212D10B480021026842F00052026006
:10098000006800F000500590102000900320CDE991
:1009900001016946044800F04DF807B000BD0000B1
:1009A00000740040403802400000024018B504685E
:1009B00000940068104421B11430009003600020BE
:1009C00018BD0830F9E730B54279012A16D0012266
:1009D00042710223037103681D6802FA01F4254382
:1009E0001D60002901680B680AD00C6803F480239D
:1009F00004F46014B3F5802F0FD015E0022030BD51
:100A00000C6803F0040304F03804042B0CD1382CD8
:100A10000AD14B6843F0010305E0B4F5601F03D130
:100A20004B6843F002034B6002710021417108469C
:100A300030BD00002DE9F84FDFF87CB100224FF007
:100A400001084FF0030A4FF00F090BF1040E00BF2D
:100A50000B6808FA02F42340A3426ED14D68022DC0
:100A600001D0122D0ED1D50800EB850CDCF82050FA
:100A70005607F70E09FA07F6B5430E69BE402E4336
:100A8000CCF82060066855000F790AFA05FC07F0DB
:100A9000030726EA0C06AF40374307604E68012E75
:100AA00005D0022E03D0112E01D0122E0ED1866851
:100AB000CF6826EA0C06AF40374387604668A643F6
:100AC0000C79C4F30014944034434460C6688C68C5
:100AD00026EA0C06AC403443C4604C68E40065D59B
:100AE000364C256845F480452560246822F00305CE
:100AF00004F480440094324C2E19D6F80848950727
:100B00002F0F09FA07F5AC432E4DA84201D100255D
:100B100024E02D4DA84201D101251FE02B4DA84214
:100B200001D102251AE02A4DA84201D1032515E082
:100B3000284DA84202D1042510E037E0264DA842F6
:100B400001D105250AE0254DA84201D1062505E081
:100B5000234DA84201D1072500E00825BD402543CB
:100B6000C6F80858DBF800405D464E689C43F60323
:100B700000D51C432C60DEF8004075464E689C434F
:100B8000B60300D51C432C600B4D08352C684E680D
:100B90009C43F60200D51C432C60074D0C352C6895
:100BA0004E689C43B60200D51C432C60521C102A90
:100BB000FFF44EAFBDE8F88F003C014044380240DE
:100BC00000300140000002400004024000080240E2
:100BD000000C0240001002400014024000180240C5
:100BE000001C02400148806870470000580A00203D
:100BF000024881680278114481607047580A0020D9
:100C00000B4810B5016841F400710160016841F4BE
:100C100080610160016841F480710160032000F08F
:100C200097F8002000F006F800F024F8002010BD2E
:100C3000003C024070B50D4D04464FF47A7128789F
:100C4000B1FBF0F00A490968B1FBF0F000F0FBFAE3
:100C500048B9102C07D200222146501E00F058F847
:100C600000206C6070BD012070BD0000580A00209B
:100C7000640A00201F4808B5016841F48041016002
:100C8000006800F4804000901A48001F016841F09D
:100C900080510160006800F080500090032000F057
:100CA00057F8002211466FF00B0000F031F80022D7
:100CB00011466FF00A0000F02BF8002211466FF089
:100CC000090000F025F800221146501F00F020F81E
:100CD00000221146101F00F01BF800221146901E42
:100CE00000F016F80022BDE808401146501E00F042
:100CF0000FB800004438024000F01F02012191406B
:100D00004009800000F1E020C0F8001170470000A9
:100D1000F0B40E4B1B680C46C3F30223C3F1070566
:100D2000042D00D90425191D072901D2002300E054
:100D3000DB1E012606FA05F1491E214099409E401E
:100D4000761E16403143F0BC00F0C0BA0CED00E056
:100D5000064900F0070208684FF6FF03184040EA12
:100D60000220034A10430860704700000CED00E0C9
:100D70000000FA052DE9F0470E46050065D0DFF8C2
:100D80001481D8F80000F7B200F00F00B04207D28B
:100D900088F80070D8F8000000F00F00B04254D17D
:100DA00028683D4C810712D5400703D5206840F4E0
:100DB000E05020602878000703D5206840F46040A8
:100DC00020602068A96820F0F0000843206028789F
:100DD000C0072DD0304968680839012812D0022890
:100DE00013D0032811D00968890700292DDA21685A
:100DF00021F0030101432160FFF7F4FE814641F237
:100E0000883A0EE009688903EFE709688901ECE791
:100E1000FFF7E8FEA0EB0901514502D90320BDE828
:100E2000F0872068696800F00C00B0EB810FEFD10B
:100E3000D8F80010404601F00F01B14207D9077001
:100E4000006800F00F00B04201D00120E7E72878E9
:100E5000400705D52068E96820F4E0500843206089
:100E60002878000706D52068296920F4604040EA08
:100E7000C100206000F01CF82168084AC1F303118A
:100E8000515CC840064908600020FFF7D3FE0020EF
:100E9000C5E70000003C0240083802403C1500084D
:100EA000640A00200148006870470000640A0020BE
:100EB000154810B5006810F00C02144813D041100A
:100EC000042A0FD0082A0ED10F4C241F2268236851
:100ED00002F03F025B0207D52068C0F38810A0FB38
:100EE000010106E0084610BD2168C1F38811A1FB8D
:100EF00000010023FFF764F92168C1F30141491C97
:100F00004900B0FBF1F010BD083802400024F400A5
:100F10002DE9F84F050076D02878DFF8F8B2BE4CFE
:100F2000C00749D0DBF800105846C1F38101012900
:100F300008D00068C0F3810002280AD1201D006893
:100F4000400206D52068800336D568680028E2D0C4
:100F500032E06868B0F5803F10D0B0F5A02F20686F
:100F600010D020F480302060206820F480202060A1
:100F70006868A0B1FFF736FE06460CE0206840F432
:100F80008030F4E740F480202060F7E7FFF72AFE86
:100F9000801B642873D820688003F7D50CE0FFF726
:100FA00021FE064605E000BFFFF71CFE801B6428FB
:100FB000F0D820688003F7D42878DFF860828007B3
:100FC0004FF000093ED5DBF80010584611F00C0F29
:100FD00009D00068C0F3810002280BD18D48001FA2
:100FE0000068400206D42068800715D5E86801280B
:100FF00009D111E0E868B8B10120C8F80000FFF796
:10100000F1FD064605E002E1FFF7ECFD801B02283A
:10101000C0D820688007F7D52068296920F0F8003B
:1010200040EAC10020600DE0C8F80090FFF7DAFD4B
:10103000064604E0FFF7D6FD801B02281FD8206873
:101040008007F7D42878000722D5724E7448696962
:101050006C3671B101210160FFF7C4FD074604E061
:10106000FFF7C0FDC01B022809D830688007F7D5FC
:101070000EE0C0F80090FFF7B5FD074605E083E0FD
:10108000FFF7B0FDC01B02287ED830688007F7D478
:101090002878400768D5DFF87CA100270AF1380AD4
:1010A000DAF80000C0000BD4DAF8001041F08051EB
:1010B000CAF80010DAF80000012700F08050009014
:1010C000584E3068C00510D4306840F480703060ED
:1010D000FFF788FD009005E0FFF784FD0099401AB6
:1010E000022851D83068C005F6D54A4EA86868363F
:1010F00001280FD00528306810D020F001003060A2
:10110000306820F004003060A868B8B1FFF76AFDCD
:1011100000900FE0306840F00100F4E740F0040078
:101120003060F7E7FFF75EFD0099411A41F2883021
:10113000814264D830688007F4D50EE0FFF752FD95
:10114000009007E0FFF74EFD0099411A41F2883008
:10115000814254D830688007F4D42FB1DAF80010F7
:1011600021F08051CAF80010A869C0B3DBF8001064
:10117000C1F3810102294AD00228484607D0C8F8A5
:101180006000FFF72FFD00E039E005463AE04746F2
:10119000C8F86000FFF726FD064604E0FFF722FDD1
:1011A000801B02282BD820688001F7D4D5E90701DD
:1011B0000843A96A1C4A490802EB01416A6A41EAEC
:1011C0008211084395F82C1040EA01611148001F74
:1011D000016001203866FFF705FD054605E014E0D3
:1011E000FFF700FD401B022809D820688001F7D5D1
:1011F0000BE000BFFFF7F6FC401B022802D90320DA
:10120000BDE8F88F20688001F4D40020F8E70120C1
:10121000F6E700000838024000380240000047426C
:10122000800E4742007000400000FFFF4FF0E021B9
:101230000428086903D020F004000861704740F0DA
:101240000400FAE7704710B5401EB0F1807F01D36B
:10125000012010BD4FF0E02460610F21601700F005
:1012600035F80020A06107202061002010BD10B5D6
:10127000FFF7E8FF10BDFEE77FB511480F490024D6
:10128000C0E9001484600125046185610D49046290
:10129000C0E90A14C460C56145610463FFF729FA17
:1012A00000B1FEE70220CDE900056946029404483A
:1012B000FFF7D6F8002800D0FEE77FBD00200140F0
:1012C000BC1400200100000FFEE770470907090E5B
:1012D000002806DA00F00F0000F1E02080F8141D6D
:1012E000704700F1E02080F80014704770477047A5
:1012F00010B5FFF77DFCBDE81040FFF7B8BF000058
:1013000030B5234893B00025016841F08051016059
:10131000006800F0805011901E48016841F480413F
:1013200001600068022400F48040119001200090C8
:10133000000401908001CDE9064008AA0420A821FC
:1013400082E813000B906846FFF7E2FD00B1FEE76C
:101350000CA90F2081E831004FF4A0500F9010909D
:1013600005210CA8FFF706FD00B1FEE7FFF79AFD87
:101370004FF47A71B0FBF1F0FFF765FF0420FFF73F
:1013800055FF00221146501EFFF7C2FC13B030BDBE
:1013900040380240007000401048016841F470017C
:1013A00001600F48016841F0010101600C4A002111
:1013B0000832116002680B4B1A400260031D0A4A92
:1013C0001A60026822F48022026005480C30016035
:1013D00002495806803908607047000088ED00E037
:1013E00000380240FFFFF6FE10300024FEE702E066
:1013F00008C8121F08C1002AFAD1704770470020A0
:1014000001E001C1121F002AFBD170472DED028BB4
:1014100082B0FFF701F8FFF7F3FBFFF771FF3F48DA
:101420000024016841F080010160016801F0800141
:101430000091016841F0010101600068394900F044
:1014400001000090364808600846FFF778FA00B1BE
:10145000FEE700940022694632480194FFF74EFAF5
:1014600000B1FEE7FFF708FF00212E48FFF7ABFAB7
:10147000DFED2D8ADFF8B4802D4C2E4D4FF425760C
:10148000B0EE688A0020414654F8202000EE102A71
:10149000C0F5257201EB8202B8EEC00AD2ED000A57
:1014A000401C80B200EE208AB042EDD95FF000000F
:1014B00004EB8001496844F82010401C80B2B0421F
:1014C000F6D318484838FFF7BBF916484FF47A713D
:1014D0004838FFF763F913484838FFF769F81349AC
:1014E000BDEEC80A091F00220860C4F8500A10EEB9
:1014F000103A11460B48FFF759FAFA2000906F682E
:10150000FFF7D0FC0C49B0FBF1F000994843009084
:1015100068680099C01B8842FAD3B1E730380240AE
:1015200000740040041500200000000004000020AA
:10153000680A0020001000E040420F000000000098
:101540000000000001020304060708096C150008EA
:1015500000000020680A000084020008341E000811
:10156000680A0020B00E0000FE13000812000100FF
:10157000FF009C103EB8D74A1CB886C5EFB74CB0E8
:10158000A2B74FC824B7B76036A0EBA82637C86902
:10159000A637170DF837F9852338C61B4938B232FC
:1015A0006C380B1F8638DC5B9438E98FA038E683F3
:1015B000AA38D304B23845E8B638CE0AB93832531F
:1015C000B838DFB1B4386420AE3896A3A438074BDE
:1015D00098388F31893884F96E3809BC4638DD2156
:1015E0001A38536FD337146D5837DD6535A07D63D6
:1015F0005FB76142E1B7C27B29B8198761B81AEDBC
:101600008BB880C5A5B82AD7BDB8C0AFD3B87DE523
:10161000E6B8650BF7B81AE301B9016006B9D4D68C
:1016200008B9BA2C09B9DC4607B92B1D03B9D8494A
:10163000F9B8F9C6E7B8EFD1D1B8D497B7B88A5896
:1016400099B828D76EB8327224B82CF0A8B730DB1E
:101650006C21CD83AF37AE7F31385BE98538AAA2E4
:10166000B2381B2CDE3821E103393C4F17391C05F9
:1016700030AE29391DA2383959D04539F741503992
:101680007DAE57397ED55B3958895C39C7A1593948
:10169000F3035339DDAF4839D4A23A3960FA283917
:1016A00066D91339EBF5F638B249C038FF5A843899
:1016B000ADEB0738EF6DBEA03C120DB82B938EB882
:1016C000A3FAD6B805470FB9060F32B9963153B908
:1016D000611872B9831287B9F96593B9C6C09DB90B
:1016E0002CE5A5B9CE9AABB9B0B2AEB99708AFB9EF
:1016F0005180ACB9740CA7B949A69EB98D5893B95D
:10170000623785B95BCB68B9D32442B949F116B9C0
:10171000027ECFB8B4C354B829F00521C8295CBCF7
:1017200000FF00753F27397B975E399B178A3989FF
:101730008AA3396A2EBB39218DD039F739E339EACA
:10174000CEF239B6F0FE39BEA6033ABCD1053A7CDA
:10175000DE053AE0BA033A5EBCFE397A8FF139868B
:1017600000E039C737CA39446CB03926E99239C428
:10177000186439BB8A1C396F47A0384A1C33A1E270
:101780005DA5B814A126B9EA837AB97977A6B99983
:1017900042CEB9CCECF3B923650BBA4A181BBAA9EF
:1017A000C028BA1B1534BA30D33CBA34C342BAD6B7
:1017B000B445BADC8545BA1D1E42BA89733BBA23CB
:1017C0008831BAB16C24BA134014BA942E01BA7A93
:1017D000E2D6B9BC9FA6B9AA6E64B96B9FE9B88A74
:1017E0002E64215B80F03802137239F2C3B539BC24
:1017F00051F1394057153AF36E303ACE71493A09F2
:10180000E95F3AE563733A85BD813A97E8873AE93B
:101810000C8C3AF00A8E3AD4C78D3A2A368B3A9518
:101820005200FF00863A26367E3AD6406B3A84F163
:10183000533A4989383A0A5E193A3DAAED39F2CB52
:10184000A239A760263977318BA1310B2BB93B0E1A
:10185000ACB9751C01BA4D4E2BBA1FE853BABA3455
:101860007ABA7DC38EBADD989EBAA84EACBA679E8E
:10187000B7BAA441C0BA6409C6BA53C3C8BA3D5185
:10188000C8BA019FC4BAE8A5BDBAF365B3BAFAF9FC
:10189000A5BAD47C95BA812082BAC63E58BA94843F
:1018A00027BABB75E5B9DA786AB9F273A32185FE68
:1018B00070399167F23928E4353AC355713ACA4311
:1018C000953AA540B03AA224C93AA97DDF3A4CD650
:1018D000F23A4A68013B9B85073BDC9F0B3B7F95B7
:1018E0000D3BB6500D3B0BBF0A3BD2DE053B1360F0
:1018F000FD3A9783EA3A7550D33AC709B83A1700C8
:10190000993ABF2C6D3A2B88223AAD31A639577CD3
:10191000B9A1E00DABB9C92F2CBACA4E81BAA9B78B
:10192000ABBA00FF004A99D4BA3447FBBA1A860F03
:10193000BB44A01FBB3CA32DBB314539BB06434272
:10194000BBB26348BB39784BBB065A4BBB49F34724
:10195000BB3C3341BBE61E37BB58C029BB743719AB
:10196000BBCFAA05BBEAA6DEBAA7E5ACBADB6F6DB2
:10197000BA5E46F3B9B510CC213178FB39F5B37DA9
:101980003ACFF8BE3A2D3AFE3A26C71D3B66F93AE1
:101990003B9F2D563BA1E26E3BD14F823B98778B0C
:1019A0003BCCB3923BC7D3973B1AB09A3B62269B82
:1019B0003B731D993B8784943B11548D3B958E83DB
:1019C0003B52816E3BE601513B53E02E3B8575084F
:1019D0003B5D56BC3A38FB413AD124DAA15AC14AA0
:1019E000BA1AC5CDBA38D81BBB36CC50BBBA748234
:1019F000BB70AD9BBB83A1B3BB0EE3C9BB2D04DEA3
:101A0000BB579AEFBBB13CFEBBF6C404BCE19208E5
:101A1000BC515D0ABCC9FF09BC255907BCFA4E027E
:101A2000BC75993082F5BB1C89E1BBD25DC8BB6D2A
:101A300018AABB2FC786BB97103DBB861DC6BAE34D
:101A4000E8E2217813D73AF5DF5E3B829DAC3BE4B8
:101A5000DDEC3BE8DA173CA0513A3C2F875D3C496E
:101A60009D803CDB89923CBE67A43CE90AB63C847D
:101A70004BC73CE605D83C060EE83C3E40F73C73BD
:101A8000BC023D384B093DA73B0F3D1F80143D0B69
:101A90000C193DE1D31C3D3ECF1F3DB2F4213D1852
:101AA00041233D3EB0230821102118212021282167
:101AB00030213821402148215021582160216821BE
:101AC000702178218021882190219821A021A821AE
:101AD000B021B821C021C821D021D821E021E8219E
:101AE000F021F82500250825102518252025282572
:101AF000302538254025482550255825602568255E
:101B0000702578258025882590259825A025A8254D
:101B1000B025B825C025C825D025D825E025E8253D
:101B2000F025F82900290829102918292029282911
:101B300030293829402948295029582960296829FD
:101B4000702978298029882990299829A029A829ED
:101B5000B029B829C029C829D029D829E029E829DD
:101B6000F029F82D00032D08032D10032D18032D47
:101B700020032D28032D30032D38032D40032D483D
:101B8000032D50032D58032D60032D68032D700382
:101B90002D78032D80032D88032D90032D98032D80
:101BA000A0032DA8032DB0032DB8032DC0032DC80D
:101BB000032DD0032DD8032DE0032DE8032DF003D2
:101BC0002DF8032D00042D08042D10042D18042DCC
:101BD00020042D28042D30042D38042D40042D48D8
:101BE000042D50042D58042D60042D68042D70041C
:101BF0002D78042D80042D88042D90042D98042D1B
:101C0000A0042DA8042DB0042DB8042DC0042DC8A7
:101C1000042DD0042DD8042DE0042DE8042DF0046B
:101C20002DF8042D00052D08052D10052D18052D66
:101C300020052D28052D30052D38052D40052D4872
:101C4000052D50052D58052D60052D68052D7005B5
:101C50002D78052D80052D88052D90052D98052DB5
:101C6000A0052DA8052DB0052DB8052DC0052DC842
:101C7000052DD0052DD8052DE0052DE8052DF00505
:101C80002DF8052D00062D08062D10062D18062D01
:101C900020062D28062D30062D38062D40062D480D
:101CA000062D50062D58062D60062D68062D70064F
:101CB0002D78062D80062D88062D90062D98062D50
:101CC000A0062DA8062DB0062DB8062DC0062DC8DD
:101CD000062DD0062DD8062DE0062DE8062DF0069F
:101CE0002DF8062D00072D08072D10072D18072D9C
:101CF00020072D28072D30072D38072D40072D48A8
:101D0000072D50072D58072D60072D68072D7007E8
:101D10002D78072D80072D88072D90072D98072DEA
:101D2000A0072DA8072DB0072DB8072DC0072DC877
:101D3000072DD0072DD8072DE0072DE8072DF00738
:101D40002DF8072D00082D08082D10082D18082D36
:101D500020082D28082D30082D38082D40082D4842
:101D6000082D50082D58082D60082D680821BC2D1D
:101D700078082D80082D88082D90082D98082DA012
:101D8000082DA8082DB0082DB8082DC0082DC808AA
:101D90002DD0082DD8082DE0082DE8082DF0082DAD
:101DA000F8082D00092D08092D10092D18092D20DE
:101DB000092D28092D30092D38092D40092D4809F4
:101DC0002D50092D58092D60092D68092D70092DF8
:101DD00078092D80092D88092D90092D98092DA0AD
:101DE000092DA8092DB0092DB8092DC0092DC80944
:101DF0002DD0092DD8092DE0092DE8092DF0092D48
:101E0000F8092D000A2D080A2D100A2D180A2D2078
:101E10000A2D280A2D300A2D380A2D400A2D480A8D
:101E20002D500A1E01580A5310000100040024F42A
:041E300000000000AE
:040000050800018965
:00000001FF
